{
  "contractName": "User",
  "abi": [
    {
      "inputs": [
        {
          "internalType": "address",
          "name": "_address",
          "type": "address"
        }
      ],
      "name": "getUserName",
      "outputs": [
        {
          "internalType": "string",
          "name": "username",
          "type": "string"
        }
      ],
      "stateMutability": "view",
      "type": "function",
      "constant": true
    },
    {
      "inputs": [
        {
          "internalType": "string",
          "name": "_name",
          "type": "string"
        },
        {
          "internalType": "string",
          "name": "_desc",
          "type": "string"
        },
        {
          "internalType": "string",
          "name": "_url",
          "type": "string"
        },
        {
          "internalType": "uint8",
          "name": "_bounty",
          "type": "uint8"
        },
        {
          "internalType": "string",
          "name": "_cid",
          "type": "string"
        },
        {
          "internalType": "string",
          "name": "_ipfsURL",
          "type": "string"
        }
      ],
      "name": "createCourse",
      "outputs": [],
      "stateMutability": "nonpayable",
      "type": "function"
    },
    {
      "inputs": [
        {
          "internalType": "uint8",
          "name": "courseID",
          "type": "uint8"
        }
      ],
      "name": "fetchAssessmentQuestions",
      "outputs": [
        {
          "internalType": "string",
          "name": "ipfsURL",
          "type": "string"
        }
      ],
      "stateMutability": "view",
      "type": "function",
      "constant": true
    },
    {
      "inputs": [],
      "name": "fetchCourses",
      "outputs": [
        {
          "components": [
            {
              "internalType": "uint8",
              "name": "id",
              "type": "uint8"
            },
            {
              "internalType": "string",
              "name": "name",
              "type": "string"
            },
            {
              "internalType": "string",
              "name": "desc",
              "type": "string"
            },
            {
              "internalType": "address",
              "name": "owner",
              "type": "address"
            },
            {
              "internalType": "string",
              "name": "url",
              "type": "string"
            },
            {
              "internalType": "uint8",
              "name": "bounty",
              "type": "uint8"
            },
            {
              "internalType": "string",
              "name": "cid",
              "type": "string"
            },
            {
              "internalType": "string",
              "name": "ipfsURL",
              "type": "string"
            }
          ],
          "internalType": "struct User.Course[]",
          "name": "courseList",
          "type": "tuple[]"
        }
      ],
      "stateMutability": "view",
      "type": "function",
      "constant": true
    },
    {
      "inputs": [],
      "name": "fetchIncompleteCourses",
      "outputs": [
        {
          "components": [
            {
              "internalType": "uint8",
              "name": "id",
              "type": "uint8"
            },
            {
              "internalType": "string",
              "name": "name",
              "type": "string"
            },
            {
              "internalType": "string",
              "name": "desc",
              "type": "string"
            },
            {
              "internalType": "address",
              "name": "owner",
              "type": "address"
            },
            {
              "internalType": "string",
              "name": "url",
              "type": "string"
            },
            {
              "internalType": "uint8",
              "name": "bounty",
              "type": "uint8"
            },
            {
              "internalType": "string",
              "name": "cid",
              "type": "string"
            },
            {
              "internalType": "string",
              "name": "ipfsURL",
              "type": "string"
            }
          ],
          "internalType": "struct User.Course[]",
          "name": "",
          "type": "tuple[]"
        }
      ],
      "stateMutability": "view",
      "type": "function",
      "constant": true
    },
    {
      "inputs": [],
      "name": "fetchCompletedCourses",
      "outputs": [
        {
          "components": [
            {
              "internalType": "uint8",
              "name": "id",
              "type": "uint8"
            },
            {
              "internalType": "string",
              "name": "name",
              "type": "string"
            },
            {
              "internalType": "string",
              "name": "desc",
              "type": "string"
            },
            {
              "internalType": "address",
              "name": "owner",
              "type": "address"
            },
            {
              "internalType": "string",
              "name": "url",
              "type": "string"
            },
            {
              "internalType": "uint8",
              "name": "bounty",
              "type": "uint8"
            },
            {
              "internalType": "string",
              "name": "cid",
              "type": "string"
            },
            {
              "internalType": "string",
              "name": "ipfsURL",
              "type": "string"
            }
          ],
          "internalType": "struct User.Course[]",
          "name": "",
          "type": "tuple[]"
        }
      ],
      "stateMutability": "view",
      "type": "function",
      "constant": true
    },
    {
      "inputs": [
        {
          "internalType": "uint8",
          "name": "_courseId",
          "type": "uint8"
        }
      ],
      "name": "completeCourse",
      "outputs": [
        {
          "internalType": "string",
          "name": "courseUrl",
          "type": "string"
        }
      ],
      "stateMutability": "nonpayable",
      "type": "function"
    },
    {
      "inputs": [
        {
          "internalType": "uint8",
          "name": "_courseId",
          "type": "uint8"
        }
      ],
      "name": "getCourseStatus",
      "outputs": [
        {
          "internalType": "string",
          "name": "courseStatus",
          "type": "string"
        }
      ],
      "stateMutability": "view",
      "type": "function",
      "constant": true
    },
    {
      "inputs": [
        {
          "internalType": "address",
          "name": "_employeeAddress",
          "type": "address"
        }
      ],
      "name": "getTotalCourseBountyValue",
      "outputs": [
        {
          "internalType": "uint8",
          "name": "totalBountyValue",
          "type": "uint8"
        }
      ],
      "stateMutability": "view",
      "type": "function",
      "constant": true
    },
    {
      "inputs": [
        {
          "internalType": "address",
          "name": "user",
          "type": "address"
        }
      ],
      "name": "getUserType",
      "outputs": [
        {
          "internalType": "uint256",
          "name": "",
          "type": "uint256"
        }
      ],
      "stateMutability": "view",
      "type": "function",
      "constant": true
    },
    {
      "inputs": [],
      "name": "fetchEmployees",
      "outputs": [
        {
          "components": [
            {
              "internalType": "address",
              "name": "_address",
              "type": "address"
            },
            {
              "internalType": "string",
              "name": "username",
              "type": "string"
            },
            {
              "internalType": "enum User.Access",
              "name": "access",
              "type": "uint8"
            },
            {
              "internalType": "uint8",
              "name": "_totalBounty",
              "type": "uint8"
            },
            {
              "internalType": "bool",
              "name": "_isActive",
              "type": "bool"
            }
          ],
          "internalType": "struct User.Employee[]",
          "name": "",
          "type": "tuple[]"
        }
      ],
      "stateMutability": "view",
      "type": "function",
      "constant": true
    },
    {
      "inputs": [
        {
          "internalType": "address",
          "name": "_employeeAddress",
          "type": "address"
        }
      ],
      "name": "deleteEmployee",
      "outputs": [],
      "stateMutability": "nonpayable",
      "type": "function"
    },
    {
      "inputs": [
        {
          "internalType": "string",
          "name": "username",
          "type": "string"
        }
      ],
      "name": "createEmployer",
      "outputs": [],
      "stateMutability": "nonpayable",
      "type": "function"
    },
    {
      "inputs": [
        {
          "internalType": "address",
          "name": "_employeeAddress",
          "type": "address"
        },
        {
          "internalType": "string",
          "name": "_employeeName",
          "type": "string"
        }
      ],
      "name": "addEmployee",
      "outputs": [],
      "stateMutability": "nonpayable",
      "type": "function"
    },
    {
      "inputs": [
        {
          "internalType": "address",
          "name": "_employeeAddress",
          "type": "address"
        }
      ],
      "name": "changeAccess",
      "outputs": [],
      "stateMutability": "nonpayable",
      "type": "function"
    },
    {
      "inputs": [],
      "name": "getTopPerformers",
      "outputs": [
        {
          "components": [
            {
              "internalType": "address",
              "name": "_address",
              "type": "address"
            },
            {
              "internalType": "string",
              "name": "username",
              "type": "string"
            },
            {
              "internalType": "enum User.Access",
              "name": "access",
              "type": "uint8"
            },
            {
              "internalType": "uint8",
              "name": "_totalBounty",
              "type": "uint8"
            },
            {
              "internalType": "bool",
              "name": "_isActive",
              "type": "bool"
            }
          ],
          "internalType": "struct User.Employee[]",
          "name": "",
          "type": "tuple[]"
        }
      ],
      "stateMutability": "view",
      "type": "function",
      "constant": true
    },
    {
      "inputs": [],
      "name": "loadTestData",
      "outputs": [],
      "stateMutability": "nonpayable",
      "type": "function"
    }
  ],
  "bytecode": "0x608060405234801561001057600080fd5b5061559780620000216000396000f3fe608060405234801561001057600080fd5b5060043610610138576000357c010000000000000000000000000000000000000000000000000000000090048063a502e808116100cf578063d84f55ee1161009e578063e3bcac5f11610083578063e3bcac5f14610262578063f1518b9714610275578063f403688a1461027d57600080fd5b8063d84f55ee14610247578063da45dcb11461025a57600080fd5b8063a502e80814610206578063b22c573f14610219578063c1166b2b14610221578063c95d75f01461023457600080fd5b806371a486881161010b57806371a48688146101a5578063743b0178146101ca57806379d4f09a146101d25780638b3f863f146101e557600080fd5b80630a67a48d1461013d578063553d9ee21461015b5780635f1b1b601461017b5780636e7c4ab114610190575b600080fd5b610145610290565b6040516101529190614d63565b60405180910390f35b61016e610169366004614e49565b610a11565b6040516101529190614e6b565b610183610f33565b6040516101529190614e7e565b6101a361019e366004614faa565b61142a565b005b6101b86101b3366004614faa565b61181f565b60405160ff9091168152602001610152565b610145611c65565b6101a36101e0366004615081565b612152565b6101f86101f3366004614faa565b612426565b604051908152602001610152565b6101a3610214366004615162565b612485565b6101a36128bf565b61016e61022f366004614e49565b612a01565b6101a36102423660046151b0565b612fe8565b61016e610255366004614faa565b613131565b6101836131dd565b61016e610270366004614e49565b6136cc565b610183613abc565b6101a361028b366004614faa565b613e7c565b3360009081526005602052604090205460609060ff16610337576040517f08c379a000000000000000000000000000000000000000000000000000000000815260206004820152602660248201527f4f6e6c7920616e20456d706c6f7965722063616e206d616b652074686973207260448201527f657175657374000000000000000000000000000000000000000000000000000060648201526084015b60405180910390fd5b3360009081526003602052604081205474010000000000000000000000000000000000000000900460ff16908167ffffffffffffffff81111561037c5761037c614fc5565b6040519080825280602002602001820160405280156103df57816020015b6103cc6040805160a0810182526000808252606060208301529091820190815260006020820181905260409091015290565b81526020019060019003908161039a5790505b5090506000805b8360ff168160ff1610156106b3573360009081526004602052604081208161040f84600161521c565b60ff1681526020808201929092526040908101600020815160a081019092528054600160a060020a03168252600181018054929391929184019161045290615241565b80601f016020809104026020016040519081016040528092919081815260200182805461047e90615241565b80156104cb5780601f106104a0576101008083540402835291602001916104cb565b820191906000526020600020905b8154815290600101906020018083116104ae57829003601f168201915b5050509183525050600282015460209091019060ff1660018111156104f2576104f2614d34565b600181111561050357610503614d34565b81526002919091015460ff610100820481166020840152620100009091041615156040909101526080810151909150156106a0573360009081526004602052604081209061055284600161521c565b60ff1681526020808201929092526040908101600020815160a081019092528054600160a060020a03168252600181018054929391929184019161059590615241565b80601f01602080910402602001604051908101604052809291908181526020018280546105c190615241565b801561060e5780601f106105e35761010080835404028352916020019161060e565b820191906000526020600020905b8154815290600101906020018083116105f157829003601f168201915b5050509183525050600282015460209091019060ff16600181111561063557610635614d34565b600181111561064657610646614d34565b81526002919091015460ff610100820481166020840152620100009091048116151560409092019190915285518691851690811061068657610686615295565b6020026020010181905250828061069c906152c4565b9350505b50806106ab816152c4565b9150506103e6565b506000808260ff1667ffffffffffffffff8111156106d3576106d3614fc5565b60405190808252806020026020018201604052801561073657816020015b6107236040805160a0810182526000808252606060208301529091820190815260006020820181905260409091015290565b8152602001906001900390816106f15790505b50905060005b84518160ff161015610a07573360009081526004602052604081208161076384600161521c565b60ff1681526020808201929092526040908101600020815160a081019092528054600160a060020a0316825260018101805492939192918401916107a690615241565b80601f01602080910402602001604051908101604052809291908181526020018280546107d290615241565b801561081f5780601f106107f45761010080835404028352916020019161081f565b820191906000526020600020905b81548152906001019060200180831161080257829003601f168201915b5050509183525050600282015460209091019060ff16600181111561084657610846614d34565b600181111561085757610857614d34565b81526002919091015460ff610100820481166020840152620100009091041615156040909101526080810151909150156109f457336000908152600460205260408120906108a684600161521c565b60ff1681526020808201929092526040908101600020815160a081019092528054600160a060020a0316825260018101805492939192918401916108e990615241565b80601f016020809104026020016040519081016040528092919081815260200182805461091590615241565b80156109625780601f1061093757610100808354040283529160200191610962565b820191906000526020600020905b81548152906001019060200180831161094557829003601f168201915b5050509183525050600282015460209091019060ff16600181111561098957610989614d34565b600181111561099a5761099a614d34565b81526002919091015460ff61010082048116602084015262010000909104811615156040909201919091528451859187169081106109da576109da615295565b602002602001018190525083806109f0906152c4565b9450505b50806109ff816152c4565b91505061073c565b5095945050505050565b336000908152600960209081526040808320805482518185028101850190935280835260609493849084015b82821015610d8257600084815260209081902060408051610100810190915260088502909101805460ff1682526001810180549293919291840191610a8190615241565b80601f0160208091040260200160405190810160405280929190818152602001828054610aad90615241565b8015610afa5780601f10610acf57610100808354040283529160200191610afa565b820191906000526020600020905b815481529060010190602001808311610add57829003601f168201915b50505050508152602001600282018054610b1390615241565b80601f0160208091040260200160405190810160405280929190818152602001828054610b3f90615241565b8015610b8c5780601f10610b6157610100808354040283529160200191610b8c565b820191906000526020600020905b815481529060010190602001808311610b6f57829003601f168201915b50505091835250506003820154600160a060020a03166020820152600482018054604090920191610bbc90615241565b80601f0160208091040260200160405190810160405280929190818152602001828054610be890615241565b8015610c355780601f10610c0a57610100808354040283529160200191610c35565b820191906000526020600020905b815481529060010190602001808311610c1857829003601f168201915b5050509183525050600582015460ff166020820152600682018054604090920191610c5f90615241565b80601f0160208091040260200160405190810160405280929190818152602001828054610c8b90615241565b8015610cd85780601f10610cad57610100808354040283529160200191610cd8565b820191906000526020600020905b815481529060010190602001808311610cbb57829003601f168201915b50505050508152602001600782018054610cf190615241565b80601f0160208091040260200160405190810160405280929190818152602001828054610d1d90615241565b8015610d6a5780601f10610d3f57610100808354040283529160200191610d6a565b820191906000526020600020905b815481529060010190602001808311610d4d57829003601f168201915b50505050508152505081526020019060010190610a3d565b505050509050606060005b82518160ff161015610f2b578460ff16838260ff1681518110610db257610db2615295565b60200260200101516000015160ff161415610f1957336000908152600a6020526040812084518290869060ff8616908110610def57610def615295565b6020908102919091018101515160ff9081168352908201929092526040016000908120549091169150816002811115610e2a57610e2a614d34565b1415610e6d576040518060400160405280600b81526020017f4e4f545f535441525445440000000000000000000000000000000000000000008152509250610f17565b6001816002811115610e8157610e81614d34565b1415610ec4576040518060400160405280600b81526020017f494e5f50524f47524553530000000000000000000000000000000000000000008152509250610f17565b6002816002811115610ed857610ed8614d34565b1415610f17576040518060400160405280600981526020017f434f4d504c45544544000000000000000000000000000000000000000000000081525092505b505b80610f23816152c4565b915050610d8d565b509392505050565b336000908152600960209081526040808320805482518185028101850190935280835260609493849084015b828210156112a457600084815260209081902060408051610100810190915260088502909101805460ff1682526001810180549293919291840191610fa390615241565b80601f0160208091040260200160405190810160405280929190818152602001828054610fcf90615241565b801561101c5780601f10610ff15761010080835404028352916020019161101c565b820191906000526020600020905b815481529060010190602001808311610fff57829003601f168201915b5050505050815260200160028201805461103590615241565b80601f016020809104026020016040519081016040528092919081815260200182805461106190615241565b80156110ae5780601f10611083576101008083540402835291602001916110ae565b820191906000526020600020905b81548152906001019060200180831161109157829003601f168201915b50505091835250506003820154600160a060020a031660208201526004820180546040909201916110de90615241565b80601f016020809104026020016040519081016040528092919081815260200182805461110a90615241565b80156111575780601f1061112c57610100808354040283529160200191611157565b820191906000526020600020905b81548152906001019060200180831161113a57829003601f168201915b5050509183525050600582015460ff16602082015260068201805460409092019161118190615241565b80601f01602080910402602001604051908101604052809291908181526020018280546111ad90615241565b80156111fa5780601f106111cf576101008083540402835291602001916111fa565b820191906000526020600020905b8154815290600101906020018083116111dd57829003601f168201915b5050505050815260200160078201805461121390615241565b80601f016020809104026020016040519081016040528092919081815260200182805461123f90615241565b801561128c5780601f106112615761010080835404028352916020019161128c565b820191906000526020600020905b81548152906001019060200180831161126f57829003601f168201915b50505050508152505081526020019060010190610f5f565b5050505090506000815167ffffffffffffffff8111156112c6576112c6614fc5565b60405190808252806020026020018201604052801561134e57816020015b61133b604051806101000160405280600060ff16815260200160608152602001606081526020016000600160a060020a0316815260200160608152602001600060ff16815260200160608152602001606081525090565b8152602001906001900390816112e45790505b5090506000805b83518160ff16101561142157336000908152600a60205260408120855160029290879060ff861690811061138b5761138b615295565b6020908102919091018101515160ff908116835290820192909252604001600020541660028111156113bf576113bf614d34565b1461140f57838160ff16815181106113d9576113d9615295565b6020026020010151838360ff16815181106113f6576113f6615295565b602090810291909101015261140c82600161521c565b91505b80611419816152c4565b915050611355565b50909392505050565b3360009081526005602052604090205460ff166114c9576040517f08c379a000000000000000000000000000000000000000000000000000000000815260206004820152602660248201527f4f6e6c7920616e20456d706c6f7965722063616e206d616b652074686973207260448201527f6571756573740000000000000000000000000000000000000000000000000000606482015260840161032e565b3360009081526003602052604081205474010000000000000000000000000000000000000000900460ff16905b8160ff168160ff1610156117fc573360009081526004602052604081208161151f84600161521c565b60ff1681526020808201929092526040908101600020815160a081019092528054600160a060020a03168252600181018054929391929184019161156290615241565b80601f016020809104026020016040519081016040528092919081815260200182805461158e90615241565b80156115db5780601f106115b0576101008083540402835291602001916115db565b820191906000526020600020905b8154815290600101906020018083116115be57829003601f168201915b5050509183525050600282015460209091019060ff16600181111561160257611602614d34565b600181111561161357611613614d34565b81526002919091015460ff610100820481166020840152620100009091041615156040909101528051909150600160a060020a0390811690851614156117e957600060808201819052338152600460205260408120829161167585600161521c565b60ff1681526020808201929092526040016000208251815473ffffffffffffffffffffffffffffffffffffffff1916600160a060020a0390911617815582820151805191926116cc92600185019290910190614c57565b50604082015160028201805460ff1916600183818111156116ef576116ef614d34565b02179055506060820151600291820180546080909401511515620100000262ff00001960ff909316610100029290921662ffff00199094169390931717909155600160a060020a03808616600090815260209283526040902083518154921673ffffffffffffffffffffffffffffffffffffffff199092169190911781558183015180518493611786926001850192910190614c57565b50604082015160028201805460ff1916600183818111156117a9576117a9614d34565b02179055506060820151600290910180546080909301511515620100000262ff00001960ff909316610100029290921662ffff0019909316929092171790555b50806117f4816152c4565b9150506114f6565b5050600160a060020a03166000908152600660205260409020805460ff19169055565b600160a060020a038116600090815260096020908152604080832080548251818502810185019093528083528493849084015b82821015611b9757600084815260209081902060408051610100810190915260088502909101805460ff168252600181018054929391929184019161189690615241565b80601f01602080910402602001604051908101604052809291908181526020018280546118c290615241565b801561190f5780601f106118e45761010080835404028352916020019161190f565b820191906000526020600020905b8154815290600101906020018083116118f257829003601f168201915b5050505050815260200160028201805461192890615241565b80601f016020809104026020016040519081016040528092919081815260200182805461195490615241565b80156119a15780601f10611976576101008083540402835291602001916119a1565b820191906000526020600020905b81548152906001019060200180831161198457829003601f168201915b50505091835250506003820154600160a060020a031660208201526004820180546040909201916119d190615241565b80601f01602080910402602001604051908101604052809291908181526020018280546119fd90615241565b8015611a4a5780601f10611a1f57610100808354040283529160200191611a4a565b820191906000526020600020905b815481529060010190602001808311611a2d57829003601f168201915b5050509183525050600582015460ff166020820152600682018054604090920191611a7490615241565b80601f0160208091040260200160405190810160405280929190818152602001828054611aa090615241565b8015611aed5780601f10611ac257610100808354040283529160200191611aed565b820191906000526020600020905b815481529060010190602001808311611ad057829003601f168201915b50505050508152602001600782018054611b0690615241565b80601f0160208091040260200160405190810160405280929190818152602001828054611b3290615241565b8015611b7f5780601f10611b5457610100808354040283529160200191611b7f565b820191906000526020600020905b815481529060010190602001808311611b6257829003601f168201915b50505050508152505081526020019060010190611852565b5050505090506000915060005b81518160ff161015611c5e57600160a060020a0384166000908152600a60205260408120835160029290859060ff8616908110611be357611be3615295565b6020908102919091018101515160ff90811683529082019290925260400160002054166002811115611c1757611c17614d34565b1415611c4c57818160ff1681518110611c3257611c32615295565b602002602001015160a0015183611c49919061521c565b92505b80611c56816152c4565b915050611ba4565b5050919050565b33600090815260066020526040902054606090819060ff1615611cfe573360009081526020818152604080832054600160a060020a03168352600182529182902080548351818402810184019094528084529091830182828015611cf257602002820191906000526020600020905b8154600160a060020a03168152600190910190602001808311611cd4575b50505050509050611d7d565b3360009081526005602052604090205460ff1615611d7d573360009081526001602090815260409182902080548351818402810184019094528084529091830182828015611d7557602002820191906000526020600020905b8154600160a060020a03168152600190910190602001808311611d57575b505050505090505b6000815167ffffffffffffffff811115611d9957611d99614fc5565b604051908082528060200260200182016040528015611dfc57816020015b611de96040805160a0810182526000808252606060208301529091820190815260006020820181905260409091015290565b815260200190600190039081611db75790505b50905060005b82518160ff161015611fdb576000611e35848360ff1681518110611e2857611e28615295565b602002602001015161181f565b905060ff811615611fc85760026000858460ff1681518110611e5957611e59615295565b6020026020010151600160a060020a0316600160a060020a031681526020019081526020016000206040518060a00160405290816000820160009054906101000a9004600160a060020a0316600160a060020a0316600160a060020a03168152602001600182018054611ecb90615241565b80601f0160208091040260200160405190810160405280929190818152602001828054611ef790615241565b8015611f445780601f10611f1957610100808354040283529160200191611f44565b820191906000526020600020905b815481529060010190602001808311611f2757829003601f168201915b5050509183525050600282015460209091019060ff166001811115611f6b57611f6b614d34565b6001811115611f7c57611f7c614d34565b81526002919091015460ff6101008204811660208401526201000090910481161515604090920191909152845185918516908110611fbc57611fbc615295565b60200260200101819052505b5080611fd3816152c4565b915050611e02565b50600181511115611fff57611fff8160018351611ff891906152e4565b6000613fa2565b6000806000845167ffffffffffffffff81111561201e5761201e614fc5565b60405190808252806020026020018201604052801561208157816020015b61206e6040805160a0810182526000808252606060208301529091820190815260006020820181905260409091015290565b81526020019060019003908161203c5790505b50905060005b84518160ff161015610a07578260ff16858260ff16815181106120ac576120ac615295565b60200260200101516060015160ff16146120df5760ff8416600314156120d157610a07565b836120db816152c4565b9450505b848160ff16815181106120f4576120f4615295565b6020026020010151828260ff168151811061211157612111615295565b6020026020010181905250848160ff168151811061213157612131615295565b6020026020010151606001519250808061214a906152c4565b915050612087565b8551158015906121625750835115155b8015612170575060ff831615155b6121fc576040517f08c379a000000000000000000000000000000000000000000000000000000000815260206004820152603b60248201527f4572726f723a204d616e6461746f727920696e666f726d6174696f6e20636f7560448201527f727365206e616d652f75726c2f626f756e7479206d697373696e670000000000606482015260840161032e565b3360009081526005602052604090205460ff1661229b576040517f08c379a000000000000000000000000000000000000000000000000000000000815260206004820152603d60248201527f41636365737320526573747269637465643a20436f75727365732063616e206260448201527f652063726561746564206f6e6c7920627920616e20656d706c6f796572000000606482015260840161032e565b604080516101008101825233600090815260086020529182205481906122c29060016152fb565b60ff908116825260208083018b905260408084018b90523360608501819052608085018b905289841660a086015260c0850189905260e09094018790526000938452600880835290842080546001808201835591865294839020865195909202909101805460ff1916949093169390931782558381015180519495508594929361235493908501929190910190614c57565b5060408201518051612370916002840191602090910190614c57565b50606082015160038201805473ffffffffffffffffffffffffffffffffffffffff1916600160a060020a03909216919091179055608082015180516123bf916004840191602090910190614c57565b5060a082015160058201805460ff191660ff90921691909117905560c082015180516123f5916006840191602090910190614c57565b5060e08201518051612411916007840191602090910190614c57565b50505061241d81614139565b50505050505050565b600160a060020a03811660009081526005602052604081205460ff161561244f57506001919050565b600160a060020a03821660009081526006602052604090205460ff161561247857506002919050565b506003919050565b919050565b3360009081526005602052604090205460ff16612524576040517f08c379a000000000000000000000000000000000000000000000000000000000815260206004820152602660248201527f4f6e6c7920616e20656d706c6f7965722063616e206d616b652074686973207260448201527f6571756573740000000000000000000000000000000000000000000000000000606482015260840161032e565b600160a060020a03821660009081526006602052604090205460ff16156125cd576040517f08c379a000000000000000000000000000000000000000000000000000000000815260206004820152603160248201527f456d706c6f79656520697320616c72656164792072656769737465726564207460448201527f6f20616e206f7267616e697a6174696f6e000000000000000000000000000000606482015260840161032e565b6040805160a081018252600160a060020a038416815260208101839052600091810182815260006020808301829052600160409384018190523383526003909152918120549293509161263c917401000000000000000000000000000000000000000090910460ff169061521c565b336000818152600360209081526040808320805460ff871674010000000000000000000000000000000000000000027fffffffffffffffffffffff00ffffffffffffffffffffffffffffffffffffffff909116179055600160a060020a03898116845260068352818420805460ff19166001908117909155848452828520805473ffffffffffffffffffffffffffffffffffffffff199081169097179055600284529190932087518154941693909416929092178355858101518051949550869461270e938501929190910190614c57565b50604082015160028201805460ff19166001838181111561273157612731614d34565b02179055506060820151600291909101805460809093015162ffff001990931661010060ff9384160262ff000019161762010000931515939093029290921790915533600090815260046020908152604080832093851683529281529190208351815473ffffffffffffffffffffffffffffffffffffffff1916600160a060020a0390911617815583820151805185936127d2926001850192910190614c57565b50604082015160028201805460ff1916600183818111156127f5576127f5614d34565b02179055506060820151600290910180546080909301511515620100000262ff00001960ff909316610100029290921662ffff001990931692909217179055600160a060020a0384166000908152600760209081526040909120845161285d92860190614c57565b506128678461436e565b6128b057336000908152600160208181526040832080549283018155835290912001805473ffffffffffffffffffffffffffffffffffffffff1916600160a060020a0386161790555b6128b984614451565b50505050565b6128fd6040518060400160405280600681526020017f476f6f676c650000000000000000000000000000000000000000000000000000815250612fe8565b61295361291860405180602001604052806000815250614998565b6040518060400160405280600381526020017f52616d0000000000000000000000000000000000000000000000000000000000815250612485565b6129a961296e60405180602001604052806000815250614998565b6040518060400160405280600581526020017f536179616e000000000000000000000000000000000000000000000000000000815250612485565b6129ff6129c460405180602001604052806000815250614998565b6040518060400160405280600781526020017f4b61757368696b00000000000000000000000000000000000000000000000000815250612485565b565b3360009081526006602052604090205460609060ff16612aa3576040517f08c379a000000000000000000000000000000000000000000000000000000000815260206004820152602660248201527f4f6e6c7920616e20656d706c6f7965652063616e206d616b652074686973207260448201527f6571756573740000000000000000000000000000000000000000000000000000606482015260840161032e565b33600090815260096020908152604080832080548251818502810185019093528083529192909190849084015b82821015612e1557600084815260209081902060408051610100810190915260088502909101805460ff1682526001810180549293919291840191612b1490615241565b80601f0160208091040260200160405190810160405280929190818152602001828054612b4090615241565b8015612b8d5780601f10612b6257610100808354040283529160200191612b8d565b820191906000526020600020905b815481529060010190602001808311612b7057829003601f168201915b50505050508152602001600282018054612ba690615241565b80601f0160208091040260200160405190810160405280929190818152602001828054612bd290615241565b8015612c1f5780601f10612bf457610100808354040283529160200191612c1f565b820191906000526020600020905b815481529060010190602001808311612c0257829003601f168201915b50505091835250506003820154600160a060020a03166020820152600482018054604090920191612c4f90615241565b80601f0160208091040260200160405190810160405280929190818152602001828054612c7b90615241565b8015612cc85780601f10612c9d57610100808354040283529160200191612cc8565b820191906000526020600020905b815481529060010190602001808311612cab57829003601f168201915b5050509183525050600582015460ff166020820152600682018054604090920191612cf290615241565b80601f0160208091040260200160405190810160405280929190818152602001828054612d1e90615241565b8015612d6b5780601f10612d4057610100808354040283529160200191612d6b565b820191906000526020600020905b815481529060010190602001808311612d4e57829003601f168201915b50505050508152602001600782018054612d8490615241565b80601f0160208091040260200160405190810160405280929190818152602001828054612db090615241565b8015612dfd5780601f10612dd257610100808354040283529160200191612dfd565b820191906000526020600020905b815481529060010190602001808311612de057829003601f168201915b50505050508152505081526020019060010190612ad0565b50505050905060005b81518160ff161015612fd1578360ff16828260ff1681518110612e4357612e43615295565b60200260200101516000015160ff16148015612eb85750336000908152600a6020526040812083518290859060ff8616908110612e8257612e82615295565b6020908102919091018101515160ff90811683529082019290925260400160002054166002811115612eb657612eb6614d34565b145b15612fbf57336000908152600a60205260408120835160029290859060ff8616908110612ee757612ee7615295565b6020908102919091018101515160ff168252810191909152604001600020805460ff19166001836002811115612f1f57612f1f614d34565b0217905550818160ff1681518110612f3957612f39615295565b60209081029190910181015160a001513360009081526002928390526040902090910154612f6f9190610100900460ff1661521c565b33600090815260026020819052604090912001805461ff00191661010060ff93841602179055825183918316908110612faa57612faa615295565b60200260200101516080015192505050919050565b80612fc9816152c4565b915050612e1e565b505060408051602081019091526000815292915050565b3360009081526005602052604090205460ff1615613088576040517f08c379a000000000000000000000000000000000000000000000000000000000815260206004820152602960248201527f596f752061726520616c7265616479207265676973746572656420617320616e60448201527f20456d706c6f7965720000000000000000000000000000000000000000000000606482015260840161032e565b60408051808201825233808252600060208084018281529282526003815284822084518154945160ff1674010000000000000000000000000000000000000000027fffffffffffffffffffffff000000000000000000000000000000000000000000909516600160a060020a0391909116179390931790925560058252838120805460ff1916600117905560078252929092208351919261312c9290850190614c57565b505050565b600160a060020a038116600090815260076020526040902080546060919061315890615241565b80601f016020809104026020016040519081016040528092919081815260200182805461318490615241565b80156131d15780601f106131a6576101008083540402835291602001916131d1565b820191906000526020600020905b8154815290600101906020018083116131b457829003601f168201915b50505050509050919050565b336000908152600960209081526040808320805482518185028101850190935280835260609493849084015b8282101561354e57600084815260209081902060408051610100810190915260088502909101805460ff168252600181018054929391929184019161324d90615241565b80601f016020809104026020016040519081016040528092919081815260200182805461327990615241565b80156132c65780601f1061329b576101008083540402835291602001916132c6565b820191906000526020600020905b8154815290600101906020018083116132a957829003601f168201915b505050505081526020016002820180546132df90615241565b80601f016020809104026020016040519081016040528092919081815260200182805461330b90615241565b80156133585780601f1061332d57610100808354040283529160200191613358565b820191906000526020600020905b81548152906001019060200180831161333b57829003601f168201915b50505091835250506003820154600160a060020a0316602082015260048201805460409092019161338890615241565b80601f01602080910402602001604051908101604052809291908181526020018280546133b490615241565b80156134015780601f106133d657610100808354040283529160200191613401565b820191906000526020600020905b8154815290600101906020018083116133e457829003601f168201915b5050509183525050600582015460ff16602082015260068201805460409092019161342b90615241565b80601f016020809104026020016040519081016040528092919081815260200182805461345790615241565b80156134a45780601f10613479576101008083540402835291602001916134a4565b820191906000526020600020905b81548152906001019060200180831161348757829003601f168201915b505050505081526020016007820180546134bd90615241565b80601f01602080910402602001604051908101604052809291908181526020018280546134e990615241565b80156135365780601f1061350b57610100808354040283529160200191613536565b820191906000526020600020905b81548152906001019060200180831161351957829003601f168201915b50505050508152505081526020019060010190613209565b5050505090506000815167ffffffffffffffff81111561357057613570614fc5565b6040519080825280602002602001820160405280156135f857816020015b6135e5604051806101000160405280600060ff16815260200160608152602001606081526020016000600160a060020a0316815260200160608152602001600060ff16815260200160608152602001606081525090565b81526020019060019003908161358e5790505b5090506000805b83518160ff16101561142157336000908152600a60205260408120855160029290879060ff861690811061363557613635615295565b6020908102919091018101515160ff9081168352908201929092526040016000205416600281111561366957613669614d34565b14156136ba57838160ff168151811061368457613684615295565b6020026020010151838360ff16815181106136a1576136a1615295565b60209081029190910101526136b782600161521c565b91505b806136c4816152c4565b9150506135ff565b336000908152600960209081526040808320805482518185028101850190935280835260609493849084015b82821015613a3d57600084815260209081902060408051610100810190915260088502909101805460ff168252600181018054929391929184019161373c90615241565b80601f016020809104026020016040519081016040528092919081815260200182805461376890615241565b80156137b55780601f1061378a576101008083540402835291602001916137b5565b820191906000526020600020905b81548152906001019060200180831161379857829003601f168201915b505050505081526020016002820180546137ce90615241565b80601f01602080910402602001604051908101604052809291908181526020018280546137fa90615241565b80156138475780601f1061381c57610100808354040283529160200191613847565b820191906000526020600020905b81548152906001019060200180831161382a57829003601f168201915b50505091835250506003820154600160a060020a0316602082015260048201805460409092019161387790615241565b80601f01602080910402602001604051908101604052809291908181526020018280546138a390615241565b80156138f05780601f106138c5576101008083540402835291602001916138f0565b820191906000526020600020905b8154815290600101906020018083116138d357829003601f168201915b5050509183525050600582015460ff16602082015260068201805460409092019161391a90615241565b80601f016020809104026020016040519081016040528092919081815260200182805461394690615241565b80156139935780601f1061396857610100808354040283529160200191613993565b820191906000526020600020905b81548152906001019060200180831161397657829003601f168201915b505050505081526020016007820180546139ac90615241565b80601f01602080910402602001604051908101604052809291908181526020018280546139d890615241565b8015613a255780601f106139fa57610100808354040283529160200191613a25565b820191906000526020600020905b815481529060010190602001808311613a0857829003601f168201915b505050505081525050815260200190600101906136f8565b50505050905060005b81518160ff161015611c5e578360ff16828260ff1681518110613a6b57613a6b615295565b60200260200101516000015160ff161415613aaa57818160ff1681518110613a9557613a95615295565b602002602001015160e0015192505050919050565b80613ab4816152c4565b915050613a46565b33600090815260056020526040902054606090819060ff1615613e525733600090815260086020908152604080832080548251818502810185019093528083529193909284015b82821015613e4857600084815260209081902060408051610100810190915260088502909101805460ff1682526001810180549293919291840191613b4790615241565b80601f0160208091040260200160405190810160405280929190818152602001828054613b7390615241565b8015613bc05780601f10613b9557610100808354040283529160200191613bc0565b820191906000526020600020905b815481529060010190602001808311613ba357829003601f168201915b50505050508152602001600282018054613bd990615241565b80601f0160208091040260200160405190810160405280929190818152602001828054613c0590615241565b8015613c525780601f10613c2757610100808354040283529160200191613c52565b820191906000526020600020905b815481529060010190602001808311613c3557829003601f168201915b50505091835250506003820154600160a060020a03166020820152600482018054604090920191613c8290615241565b80601f0160208091040260200160405190810160405280929190818152602001828054613cae90615241565b8015613cfb5780601f10613cd057610100808354040283529160200191613cfb565b820191906000526020600020905b815481529060010190602001808311613cde57829003601f168201915b5050509183525050600582015460ff166020820152600682018054604090920191613d2590615241565b80601f0160208091040260200160405190810160405280929190818152602001828054613d5190615241565b8015613d9e5780601f10613d7357610100808354040283529160200191613d9e565b820191906000526020600020905b815481529060010190602001808311613d8157829003601f168201915b50505050508152602001600782018054613db790615241565b80601f0160208091040260200160405190810160405280929190818152602001828054613de390615241565b8015613e305780601f10613e0557610100808354040283529160200191613e30565b820191906000526020600020905b815481529060010190602001808311613e1357829003601f168201915b50505050508152505081526020019060010190613b03565b5050505091505090565b3360009081526006602052604090205460ff161561248057613e72610f33565b91505090565b5090565b3360009081526005602052604090205460ff16613f1b576040517f08c379a000000000000000000000000000000000000000000000000000000000815260206004820152602660248201527f4f6e6c7920616e20656d706c6f7965722063616e206d616b652074686973207260448201527f6571756573740000000000000000000000000000000000000000000000000000606482015260840161032e565b600160a060020a03811660009081526002602081905260408220015460ff1690816001811115613f4d57613f4d614d34565b1415613f7c5750600160a060020a0316600090815260026020819052604090912001805460ff19166001179055565b50600160a060020a0316600090815260026020819052604090912001805460ff19169055565b818180821415613fb3575050505050565b6000856002613fc28787615313565b613fcc9190615387565b613fd690876153f8565b81518110613fe657613fe6615295565b60200260200101516060015160ff1690505b81831261410b575b8086848151811061401357614013615295565b60200260200101516060015160ff16101561403a57826140328161546c565b935050614000565b85828151811061404c5761404c615295565b60200260200101516060015160ff16811015614074578161406c816154a6565b92505061403a565b8183126141065785838151811061408d5761408d615295565b60200260200101518683815181106140a7576140a7615295565b60200260200101518784815181106140c1576140c1615295565b602002602001018886815181106140da576140da615295565b60200260200101829052829052505082806140f49061546c565b9350508180614102906154a6565b9250505b613ff8565b8185131561411e5761411e868684613fa2565b8383131561413157614131868486613fa2565b505050505050565b3360009081526001602090815260408083208054825181850281018501909352808352919290919083018282801561419a57602002820191906000526020600020905b8154600160a060020a0316815260019091019060200180831161417c575b5050505050905060005b81518160ff16101561312c5760096000838360ff16815181106141c9576141c9615295565b602090810291909101810151600160a060020a03168252818101929092526040016000908120805460018082018355918352918390208651600890930201805460ff191660ff909316929092178255858301518051879461422e938501920190614c57565b506040820151805161424a916002840191602090910190614c57565b50606082015160038201805473ffffffffffffffffffffffffffffffffffffffff1916600160a060020a0390921691909117905560808201518051614299916004840191602090910190614c57565b5060a082015160058201805460ff191660ff90921691909117905560c082015180516142cf916006840191602090910190614c57565b5060e082015180516142eb916007840191602090910190614c57565b5050506000600a6000848460ff168151811061430957614309615295565b602090810291909101810151600160a060020a031682528181019290925260409081016000908120875160ff1682529092529020805460ff1916600183600281111561435757614357614d34565b021790555080614366816152c4565b9150506141a4565b336000908152600160209081526040808320805482518185028101850190935280835284938301828280156143cc57602002820191906000526020600020905b8154600160a060020a031681526001909101906020018083116143ae575b505050505090508051600014156143e65750600092915050565b60005b81518160ff1610156144475783600160a060020a0316828260ff168151811061441457614414615295565b6020026020010151600160a060020a03161415614435575060019392505050565b8061443f816152c4565b9150506143e9565b5060009392505050565b33600090815260086020908152604080832080548251818502810185019093528083529192909190849084015b828210156147c357600084815260209081902060408051610100810190915260088502909101805460ff16825260018101805492939192918401916144c290615241565b80601f01602080910402602001604051908101604052809291908181526020018280546144ee90615241565b801561453b5780601f106145105761010080835404028352916020019161453b565b820191906000526020600020905b81548152906001019060200180831161451e57829003601f168201915b5050505050815260200160028201805461455490615241565b80601f016020809104026020016040519081016040528092919081815260200182805461458090615241565b80156145cd5780601f106145a2576101008083540402835291602001916145cd565b820191906000526020600020905b8154815290600101906020018083116145b057829003601f168201915b50505091835250506003820154600160a060020a031660208201526004820180546040909201916145fd90615241565b80601f016020809104026020016040519081016040528092919081815260200182805461462990615241565b80156146765780601f1061464b57610100808354040283529160200191614676565b820191906000526020600020905b81548152906001019060200180831161465957829003601f168201915b5050509183525050600582015460ff1660208201526006820180546040909201916146a090615241565b80601f01602080910402602001604051908101604052809291908181526020018280546146cc90615241565b80156147195780601f106146ee57610100808354040283529160200191614719565b820191906000526020600020905b8154815290600101906020018083116146fc57829003601f168201915b5050505050815260200160078201805461473290615241565b80601f016020809104026020016040519081016040528092919081815260200182805461475e90615241565b80156147ab5780601f10614780576101008083540402835291602001916147ab565b820191906000526020600020905b81548152906001019060200180831161478e57829003601f168201915b5050505050815250508152602001906001019061447e565b50505050905060005b81518160ff16101561312c57600160a060020a03831660009081526009602052604090208251839060ff841690811061480757614807615295565b6020908102919091018101518254600180820185556000948552938390208251600890920201805460ff191660ff909216919091178155818301518051929491936148589392850192910190614c57565b5060408201518051614874916002840191602090910190614c57565b50606082015160038201805473ffffffffffffffffffffffffffffffffffffffff1916600160a060020a03909216919091179055608082015180516148c3916004840191602090910190614c57565b5060a082015160058201805460ff191660ff90921691909117905560c082015180516148f9916006840191602090910190614c57565b5060e08201518051614915916007840191602090910190614c57565b505050600160a060020a0383166000908152600a6020526040812083518290859060ff861690811061494957614949615295565b6020908102919091018101515160ff168252810191909152604001600020805460ff1916600183600281111561498157614981614d34565b021790555080614990816152c4565b9150506147cc565b60008181808060025b602a811015614c4c576149b6610100856154df565b93508481815181106149ca576149ca615295565b60200101517f010000000000000000000000000000000000000000000000000000000000000090047f0100000000000000000000000000000000000000000000000000000000000000027f0100000000000000000000000000000000000000000000000000000000000000900460ff16925084816001614a4a91906152fb565b81518110614a5a57614a5a615295565b60200101517f010000000000000000000000000000000000000000000000000000000000000090047f0100000000000000000000000000000000000000000000000000000000000000027f0100000000000000000000000000000000000000000000000000000000000000900460ff169150606183600160a060020a031610158015614af05750606683600160a060020a031611155b15614b0757614b0060578461550e565b9250614b72565b604183600160a060020a031610158015614b2b5750604683600160a060020a031611155b15614b3b57614b0060378461550e565b603083600160a060020a031610158015614b5f5750603983600160a060020a031611155b15614b7257614b6f60308461550e565b92505b606182600160a060020a031610158015614b965750606682600160a060020a031611155b15614bad57614ba660578361550e565b9150614c18565b604182600160a060020a031610158015614bd15750604682600160a060020a031611155b15614be157614ba660378361550e565b603082600160a060020a031610158015614c055750603982600160a060020a031611155b15614c1857614c1560308361550e565b91505b81614c248460106154df565b614c2e9190615536565b614c389085615536565b9350614c456002826152fb565b90506149a1565b509195945050505050565b828054614c6390615241565b90600052602060002090601f016020900481019282614c855760008555614ccb565b82601f10614c9e57805160ff1916838001178555614ccb565b82800160010185558215614ccb579182015b82811115614ccb578251825591602001919060010190614cb0565b50613e789291505b80821115613e785760008155600101614cd3565b6000815180845260005b81811015614d0d57602081850181015186830182015201614cf1565b81811115614d1f576000602083870101525b50601f01601f19169290920160200192915050565b7f4e487b7100000000000000000000000000000000000000000000000000000000600052602160045260246000fd5b6020808252825182820181905260009190604090818501908084028601830187850186805b84811015614e2957603f198a8503018652825160a0600160a060020a03825116865289820151818b880152614dbf82880182614ce7565b9150508882015160028110614dfb577f4e487b710000000000000000000000000000000000000000000000000000000085526021600452602485fd5b868a015260608281015160ff1690870152608091820151151591909501529487019491870191600101614d88565b50919998505050505050505050565b803560ff8116811461248057600080fd5b600060208284031215614e5b57600080fd5b614e6482614e38565b9392505050565b602081526000614e646020830184614ce7565b60208082528251828201819052600091906040908185019080840286018301878501865b83811015614f8557888303603f190185528151805160ff16845261010088820151818a870152614ed482870182614ce7565b9150508782015185820389870152614eec8282614ce7565b915050606080830151614f0982880182600160a060020a03169052565b505060808083015186830382880152614f228382614ce7565b9250505060a080830151614f3a8288018260ff169052565b505060c08083015186830382880152614f538382614ce7565b9250505060e08083015192508582038187015250614f718183614ce7565b968901969450505090860190600101614ea2565b509098975050505050505050565b8035600160a060020a038116811461248057600080fd5b600060208284031215614fbc57600080fd5b614e6482614f93565b7f4e487b7100000000000000000000000000000000000000000000000000000000600052604160045260246000fd5b600082601f83011261500557600080fd5b813567ffffffffffffffff8082111561502057615020614fc5565b604051601f8301601f19908116603f0116810190828211818310171561504857615048614fc5565b8160405283815286602085880101111561506157600080fd5b836020870160208301376000602085830101528094505050505092915050565b60008060008060008060c0878903121561509a57600080fd5b863567ffffffffffffffff808211156150b257600080fd5b6150be8a838b01614ff4565b975060208901359150808211156150d457600080fd5b6150e08a838b01614ff4565b965060408901359150808211156150f657600080fd5b6151028a838b01614ff4565b955061511060608a01614e38565b9450608089013591508082111561512657600080fd5b6151328a838b01614ff4565b935060a089013591508082111561514857600080fd5b5061515589828a01614ff4565b9150509295509295509295565b6000806040838503121561517557600080fd5b61517e83614f93565b9150602083013567ffffffffffffffff81111561519a57600080fd5b6151a685828601614ff4565b9150509250929050565b6000602082840312156151c257600080fd5b813567ffffffffffffffff8111156151d957600080fd5b6151e584828501614ff4565b949350505050565b7f4e487b7100000000000000000000000000000000000000000000000000000000600052601160045260246000fd5b600060ff821660ff84168060ff03821115615239576152396151ed565b019392505050565b60028104600182168061525557607f821691505b6020821081141561528f577f4e487b7100000000000000000000000000000000000000000000000000000000600052602260045260246000fd5b50919050565b7f4e487b7100000000000000000000000000000000000000000000000000000000600052603260045260246000fd5b600060ff821660ff8114156152db576152db6151ed565b60010192915050565b6000828210156152f6576152f66151ed565b500390565b6000821982111561530e5761530e6151ed565b500190565b6000808312837f80000000000000000000000000000000000000000000000000000000000000000183128115161561534d5761534d6151ed565b837f7fffffffffffffffffffffffffffffffffffffffffffffffffffffffffffffff018313811615615381576153816151ed565b50500390565b6000826153bd577f4e487b7100000000000000000000000000000000000000000000000000000000600052601260045260246000fd5b7f80000000000000000000000000000000000000000000000000000000000000008214600019841416156153f3576153f36151ed565b500590565b6000808212827f7fffffffffffffffffffffffffffffffffffffffffffffffffffffffffffffff03841381151615615432576154326151ed565b827f8000000000000000000000000000000000000000000000000000000000000000038412811615615466576154666151ed565b50500190565b60007f800000000000000000000000000000000000000000000000000000000000000082141561549e5761549e6151ed565b506000190190565b60007f7fffffffffffffffffffffffffffffffffffffffffffffffffffffffffffffff8214156154d8576154d86151ed565b5060010190565b6000600160a060020a0380831681851681830481118215151615615505576155056151ed565b02949350505050565b6000600160a060020a038381169083168181101561552e5761552e6151ed565b039392505050565b6000600160a060020a03808316818516808303821115615558576155586151ed565b0194935050505056fea2646970667358221220d5bbdcf338f0a3a094c5c39ffaef418b4daf015aa2ef03307bc37de77d1a730264736f6c634300080a0033",
  "immutableReferences": {},
  "source": "// SPDX-License-Identifier: MIT OR Apache-2.0\r\npragma solidity ^0.8.0;\r\n\r\ninterface IERC20 {\r\n    function transfer(address recipient, uint256 amount)\r\n        external\r\n        returns (bool);\r\n}\r\n\r\ncontract User {\r\n    // Employee address => employerAddress\r\n    // Used when creating a new employee\r\n    mapping(address => address) private employee_Employer;\r\n\r\n    // Employer-Employees mapping\r\n    mapping(address => address[]) private employer_Employees;\r\n\r\n    // Employee address => Employee Struct\r\n    // Used when creating a new Employee\r\n    mapping(address => Employee) private employee_AccountDetails;\r\n\r\n    // Organization employerAddress => Organization\r\n    // Used when creating an Organization\r\n    mapping(address => Organization) private employer_Organization;\r\n\r\n    // Employer address => employeeId => employeeAddress\r\n    // Used when creating a new Employer\r\n    // mapping(address => mapping(uint8 => address)) private member_Organization;\r\n    mapping(address => mapping(uint8 => Employee)) private member_Organization;\r\n\r\n    // Employer address => bool\r\n    mapping(address => bool) private isEmployer;\r\n\r\n    // Employee address => bool\r\n    mapping(address => bool) private isEmployee;\r\n\r\n    // User address => username\r\n    mapping(address => string) private users;\r\n\r\n    // Courses employer creates\r\n    mapping(address => Course[]) private employerCourses;\r\n\r\n    // Courses employee subscribed to\r\n    mapping(address => Course[]) private employeeCourses;\r\n\r\n    // Status of courses employee had subscribed to\r\n    mapping(address => mapping(uint8 => EmployeeCourseStatus)) private employeeCourseStatus;\r\n\r\n    // Number of top performers to be determined\r\n    uint8 constant TOP_PERFORMERS_COUNT = 3;\r\n\r\n    // Minimum percentage required to be eligible for leaderboard\r\n    uint8 constant TOP_PERF_MIN_PERCENTAGE = 10;\r\n\r\n    /**\r\n     * Course details\r\n     */\r\n    struct Course {\r\n        uint8 id; \r\n        string name; \r\n        string desc;\r\n        address owner; \r\n        string url;\r\n        uint8 bounty;\r\n        string cid;\r\n        string ipfsURL;\r\n    }\r\n\r\n    // TODO Add course, delete course functions\r\n    // TODO Check for change in course status, emit an event on course completion that initiates streaming from employer to employee\r\n    // TODO Function to get all the learning courses added by employer\r\n    // TODO Employee address => List of courses enrolled and completed\r\n\r\n    enum Access {\r\n        Locked, // Locked by employer. Can't be unlocked by employee. No access to widrawal of funds.\r\n        Unlocked // Unlocked by employer. Can't be unlocked by employee. No access to widrawal of funds.\r\n    }\r\n\r\n    /**\r\n    * Employee course status\r\n    */\r\n    enum EmployeeCourseStatus {\r\n        NOT_STARTED,\r\n        IN_PROGRESS,\r\n        COMPLETED\r\n    }\r\n\r\n    struct Employee {\r\n        address _address; // the address of the employee\r\n        string username; // an identifier for the employee\r\n        Access access; // locked(0) or unlocked(1)\r\n        uint8 _totalBounty;\r\n        bool _isActive;\r\n    }\r\n\r\n    struct Organization {\r\n        address payable owner; // the owner of the Organization\r\n        // mapping(address => Employee) employee; // the employees of the organization\r\n        uint8 numOfEmployees; // The number of employees in the organization\r\n    }\r\n\r\n    /** \r\n     * @notice - This function is used to retrieve the username based on wallet address\r\n     * @param _address - The address of the user.\r\n     */\r\n    function getUserName(address _address) external view returns(string memory username){\r\n        return users[_address];\r\n    }\r\n\r\n    /**\r\n     * @notice - Creates course\r\n     *\r\n     * @param _name - name of the course\r\n     * @param _desc - description of the course\r\n     * @param _url - url of the course\r\n     * @param _bounty - bounty for the course\r\n     * @param _cid - cid of the course\r\n     */\r\n    function createCourse(string memory _name, string memory _desc, \r\n        string memory _url, uint8 _bounty, string memory _cid, string memory _ipfsURL) public {\r\n        require(\r\n            (bytes(_name).length != 0 && bytes(_url).length != 0 && _bounty != 0), \r\n        \"Error: Mandatory information course name/url/bounty missing\"\r\n        );\r\n\r\n        require(\r\n            isEmployer[msg.sender],\r\n            \"Access Restricted: Courses can be created only by an employer\"\r\n        );\r\n\r\n        Course memory course = Course({\r\n            id: uint8(employerCourses[msg.sender].length + 1),\r\n            name: _name,\r\n            desc: _desc,\r\n            owner: msg.sender,\r\n            url: _url,\r\n            bounty: _bounty,\r\n            cid: _cid,\r\n            ipfsURL: _ipfsURL\r\n        });\r\n        employerCourses[msg.sender].push(course);\r\n        subscribeCourse(course);\r\n    }\r\n\r\n    /**\r\n     * @notice - Fetch IPFS URL of course ID\r\n     *\r\n     * @param courseID - ID of the course\r\n     * @return ipfsURL - IPFS file URL\r\n     */\r\n    function fetchAssessmentQuestions(uint8 courseID) view public returns (string memory ipfsURL) {\r\n        Course[] memory coursesList = employeeCourses[msg.sender];\r\n        for (uint8 i = 0; i < coursesList.length; i++) {\r\n            if(coursesList[i].id == courseID) {\r\n                return coursesList[i].ipfsURL;\r\n            }\r\n        }\r\n    }\r\n\r\n    /**\r\n     * @notice - Fetch course list based on user type\r\n     *\r\n     * @return courseList - list of courses  \r\n     */\r\n    function fetchCourses() view public returns (Course[] memory courseList) {\r\n        Course[] memory courses;\r\n        if (isEmployer[msg.sender]) { //Employer\r\n            return employerCourses[msg.sender];\r\n        } else if (isEmployee[msg.sender]) { //Employee\r\n            return fetchIncompleteCourses();\r\n        } else {\r\n            return courses;\r\n        }\r\n    }\r\n\r\n\r\n    /**\r\n     * @notice - Fetch incompleted course list\r\n     *\r\n     * @return courseList - list of courses  \r\n     */\r\n    function fetchIncompleteCourses() view public returns (Course[] memory) {\r\n        Course[] memory coursesList = employeeCourses[msg.sender];\r\n        Course[] memory incompletedList = new Course[](coursesList.length);\r\n        uint8 counter = 0;\r\n        for (uint8 i = 0; i < coursesList.length; i++) {\r\n            if(employeeCourseStatus[msg.sender][coursesList[i].id] != EmployeeCourseStatus.COMPLETED) {\r\n                incompletedList[counter] = coursesList[i];\r\n                counter = counter + 1;\r\n            }\r\n        }\r\n        return incompletedList;\r\n    }\r\n\r\n\r\n    /**\r\n     * @notice - Fetch completed course list\r\n     *\r\n     * @return courseList - list of courses  \r\n     */\r\n    function fetchCompletedCourses() view public returns (Course[] memory) {\r\n        Course[] memory coursesList = employeeCourses[msg.sender];\r\n        Course[] memory completedList = new Course[](coursesList.length);\r\n        uint8 counter = 0;\r\n        for (uint8 i = 0; i < coursesList.length; i++) {\r\n            if(employeeCourseStatus[msg.sender][coursesList[i].id] == EmployeeCourseStatus.COMPLETED) {\r\n                completedList[counter] = coursesList[i];\r\n                counter = counter + 1;\r\n            }\r\n        }\r\n        return completedList;\r\n    }\r\n\r\n\r\n    /**\r\n     * @notice - Subscribe course\r\n     *\r\n     * @param _course - course\r\n     */\r\n    function subscribeCourse(Course memory _course) private {\r\n        address[] memory employees = employer_Employees[msg.sender];\r\n\r\n        // All newly added courses are subscribed to all employers by default\r\n        for (uint8 i = 0; i < employees.length; i++) {\r\n            employeeCourses[employees[i]].push(_course);\r\n            employeeCourseStatus[employees[i]][_course.id] = EmployeeCourseStatus.NOT_STARTED;\r\n        }\r\n    }\r\n\r\n\r\n    /**\r\n     * @notice - Subscribe course\r\n     */\r\n    function subscribeCourse(address _address) private {\r\n        Course[] memory courses = employerCourses[msg.sender];\r\n\r\n        // All newly added courses are subscribed to all employers by default\r\n        for (uint8 i = 0; i < courses.length; i++) {\r\n            employeeCourses[_address].push(courses[i]);\r\n            employeeCourseStatus[_address][courses[i].id] = EmployeeCourseStatus.NOT_STARTED;\r\n        }\r\n    }\r\n\r\n\r\n    /**\r\n     * @notice - Complete course\r\n     *\r\n     * @param _courseId - course ID\r\n     * @return courseUrl - course URL\r\n     */\r\n    function completeCourse(uint8 _courseId) public returns (string memory courseUrl) {\r\n        require(isEmployee[msg.sender], \"Only an employee can make this request\");\r\n\r\n        Course[] memory allCourses = employeeCourses[msg.sender];\r\n        for (uint8 i = 0; i < allCourses.length; i++) {\r\n            if (allCourses[i].id == _courseId && employeeCourseStatus[msg.sender][allCourses[i].id] == EmployeeCourseStatus.NOT_STARTED) {\r\n                employeeCourseStatus[msg.sender][allCourses[i].id] = EmployeeCourseStatus.COMPLETED;\r\n                employee_AccountDetails[msg.sender]._totalBounty = employee_AccountDetails[msg.sender]._totalBounty \r\n                                                                    + allCourses[i].bounty;\r\n                return allCourses[i].url;\r\n            }\r\n        }\r\n        return \"\";\r\n    }\r\n\r\n    /**\r\n     * @notice - Get course status\r\n     *\r\n     * @param _courseId - course ID\r\n     * @return courseStatus - course status\r\n     */\r\n    function getCourseStatus(uint8 _courseId) public view returns (string memory courseStatus) {\r\n        Course[] memory allCourses = employeeCourses[msg.sender];\r\n        string memory status;\r\n        for (uint8 i = 0; i < allCourses.length; i++) {\r\n            if (allCourses[i].id == _courseId) {\r\n                EmployeeCourseStatus cStatus = employeeCourseStatus[msg.sender][allCourses[i].id];\r\n                    if (cStatus == EmployeeCourseStatus.NOT_STARTED) {\r\n                        status = \"NOT_STARTED\";\r\n                    } else if (cStatus == EmployeeCourseStatus.IN_PROGRESS) {\r\n                        status = \"IN_PROGRESS\";\r\n                    } else if (cStatus == EmployeeCourseStatus.COMPLETED) {\r\n                        status = \"COMPLETED\";\r\n                    }\r\n            }\r\n        }\r\n        return status;\r\n    }\r\n    \r\n\r\n    /**\r\n     * @notice - Fetch total course bounty value\r\n     *\r\n     * @param _employeeAddress - employee address\r\n     * @return totalBountyValue - total bounty value\r\n     */\r\n    function getTotalCourseBountyValue(address _employeeAddress) public view returns (uint8 totalBountyValue){\r\n        Course[] memory courses = employeeCourses[_employeeAddress];\r\n        totalBountyValue = 0;\r\n        for(uint8 i = 0; i < courses.length; i++) {\r\n            if (employeeCourseStatus[_employeeAddress][courses[i].id] == EmployeeCourseStatus.COMPLETED) {\r\n                totalBountyValue = totalBountyValue + courses[i].bounty;\r\n            }\r\n        }\r\n        return totalBountyValue;\r\n    }\r\n\r\n\r\n    /** \r\n     * @notice - This function is used to determine the type of user\r\n     * 1 = employer. 2 = employee. 3 = unenrolled\r\n     * @param user - The address of the user.\r\n     */\r\n    function getUserType(address user) external view returns(uint256){\r\n        if(isEmployer[user]){\r\n            return 1;\r\n        }else if (isEmployee[user]){\r\n            return 2;\r\n        }else{\r\n            return 3;\r\n        }\r\n    }\r\n\r\n    /**\r\n     * @notice - This function is used to determine if the user is an employee of an organization.\r\n     */\r\n    function fetchEmployees() public view returns (Employee[] memory) {\r\n        require(isEmployer[msg.sender], \"Only an Employer can make this request\");\r\n\r\n        //determine how many employees the employer has\r\n        uint8 numOfEmployees = employer_Organization[msg.sender].numOfEmployees;\r\n        Employee[] memory employees = new Employee[](numOfEmployees);\r\n\r\n        // Determine number of active employees\r\n        uint8 noOfActiveEmps = 0;\r\n        for (uint8 index = 0; index < numOfEmployees; index++) {\r\n            Employee memory employee = member_Organization[msg.sender][index + 1];\r\n            if (employee._isActive) {\r\n                employees[index] = member_Organization[msg.sender][index + 1];\r\n                noOfActiveEmps++;\r\n            }\r\n        }\r\n\r\n        // Copy active employees to new array\r\n        uint8 counter = 0;\r\n        Employee[] memory result = new Employee[](noOfActiveEmps);\r\n        for (uint8 index = 0; index < employees.length; index++) {\r\n            Employee memory employee = member_Organization[msg.sender][index + 1];\r\n            if (employee._isActive) {\r\n                result[counter] = member_Organization[msg.sender][index + 1];\r\n                counter++;\r\n            }\r\n        }\r\n\r\n        return result;\r\n    }\r\n\r\n    /**\r\n     * @notice - This function is used to delete/make inactive an employee\r\n     */\r\n    function deleteEmployee(address _employeeAddress) public {\r\n        require(isEmployer[msg.sender], \"Only an Employer can make this request\");\r\n\r\n        uint8 numOfEmployees = employer_Organization[msg.sender].numOfEmployees;\r\n        for (uint8 index = 0; index < numOfEmployees; index++) {\r\n            Employee memory employee = member_Organization[msg.sender][index + 1];\r\n            if (employee._address == _employeeAddress) {\r\n                employee._isActive = false;\r\n                member_Organization[msg.sender][index + 1] = employee;\r\n                employee_AccountDetails[_employeeAddress] = employee;\r\n            }\r\n        }\r\n        isEmployee[_employeeAddress] = false;\r\n    }\r\n\r\n    /**\r\n     * @notice - This function is used to create a new employer/owner\r\n     */\r\n    function createEmployer(string memory username) public {\r\n        require(\r\n            !isEmployer[msg.sender],\r\n            \"You are already registered as an Employer\"\r\n        );\r\n\r\n        // create a new organization\r\n        Organization memory organization = Organization({\r\n            owner: payable(msg.sender),\r\n            numOfEmployees: 0\r\n        });\r\n        employer_Organization[msg.sender] = organization;\r\n        isEmployer[msg.sender] = true;\r\n        users[msg.sender]=username;\r\n    }\r\n\r\n    /**\r\n     * @notice - This function is used to add a employee to the organization owned by an employer.\r\n     * @param _employeeAddress - The address of the employee.\r\n     * @param _employeeName - The username of the employee.\r\n     */\r\n    function addEmployee(address _employeeAddress, string memory _employeeName) public {\r\n        require(isEmployer[msg.sender], \"Only an employer can make this request\");\r\n        require(!isEmployee[_employeeAddress], \"Employee is already registered to an organization\");\r\n        // Fetch the employee\r\n        Employee memory employee = Employee({\r\n            _address: _employeeAddress,\r\n            username: _employeeName,\r\n            access: Access.Locked,\r\n            _totalBounty: 0,\r\n            _isActive: true\r\n        });\r\n\r\n        // get next id number for the employee\r\n        uint8 employeeId = employer_Organization[msg.sender].numOfEmployees + 1;\r\n\r\n        // update employee count\r\n        employer_Organization[msg.sender].numOfEmployees = employeeId;\r\n\r\n        // update mappings\r\n        isEmployee[_employeeAddress] = true;\r\n        employee_Employer[_employeeAddress] = msg.sender;\r\n        employee_AccountDetails[_employeeAddress] = employee;\r\n        member_Organization[msg.sender][employeeId] = employee;\r\n        users[_employeeAddress]=_employeeName;\r\n\r\n        // Update employer-employees mapping\r\n        if (!isEmployeeAlreadyExist(_employeeAddress)) {\r\n            employer_Employees[msg.sender].push(_employeeAddress);\r\n        } \r\n\r\n        // Subscribe all courses to new employee\r\n        subscribeCourse(_employeeAddress);\r\n    }\r\n\r\n    /**\r\n     * @notice - Check if employee address already exist for the employer\r\n     *\r\n     * @param _employeeAddress - address of the employee\r\n     * @return - flag indicating if employee already present \r\n     */\r\n    function isEmployeeAlreadyExist(address _employeeAddress) private view returns(bool) {\r\n        address[] memory employees = employer_Employees[msg.sender];\r\n\r\n        if (employees.length == 0) { return false; }\r\n        for (uint8 i = 0; i < employees.length; i++) {\r\n            if (employees[i] == _employeeAddress) { return true; }\r\n        }\r\n        return false;\r\n    }\r\n\r\n    /**\r\n     * @notice - This function is used to change the access of an employee.\r\n     * @param _employeeAddress - The address of the employee.\r\n     */\r\n    function changeAccess(address _employeeAddress) public {\r\n        require(isEmployer[msg.sender], \"Only an employer can make this request\");\r\n\r\n        // current status\r\n        Access currentAccess = employee_AccountDetails[_employeeAddress].access;\r\n\r\n        // change the access of the employee\r\n        if (currentAccess == Access.Locked) {\r\n            employee_AccountDetails[_employeeAddress].access = Access.Unlocked;\r\n        } else {\r\n            employee_AccountDetails[_employeeAddress].access = Access.Locked;\r\n        }\r\n    }\r\n\r\n    /**\r\n     * @notice - Fetches top performers based on total completion percentage\r\n     */\r\n    function getTopPerformers() public view returns (Employee[] memory){\r\n        address[] memory employeeAddesses;\r\n        if (isEmployee[msg.sender]){\r\n            employeeAddesses = employer_Employees[employee_Employer[msg.sender]];\r\n        } else if (isEmployer[msg.sender]) {\r\n            employeeAddesses = employer_Employees[msg.sender];\r\n        }\r\n            \r\n        Employee[] memory employees = new Employee[](employeeAddesses.length);\r\n        for(uint8 i = 0; i < employeeAddesses.length; i++) {\r\n            uint8 totalBountyVal = getTotalCourseBountyValue(employeeAddesses[i]);\r\n            // Only employees with minimum completion percentage is eligible\r\n            if (totalBountyVal > 0) {\r\n                employees[i] = employee_AccountDetails[employeeAddesses[i]];\r\n            }\r\n        }\r\n        if (employees.length > 1) {\r\n            sortEmployeesByTotalBounty(employees, int(employees.length -1), int(0));\r\n        }\r\n\r\n        uint8 counter = 0;\r\n        uint8 previousValue = 0;\r\n        Employee[] memory topPerformers = new Employee[](employeeAddesses.length);\r\n        for (uint8 j = 0; j < employees.length; j++) {\r\n            if (employees[j]._totalBounty != previousValue) {\r\n                if (counter == TOP_PERFORMERS_COUNT) {\r\n                break;\r\n                }\r\n                counter++;\r\n            }\r\n            topPerformers[j] = employees[j];\r\n            previousValue = employees[j]._totalBounty;\r\n        } \r\n        return topPerformers;\r\n    }\r\n\r\n\r\n    /**\r\n     * @notice - Sort employees based on bounties earned\r\n     *\r\n     * @param arr - address of the employee\r\n     * @param left - left pointer of array\r\n     * @param right - right pointer of array\r\n     */\r\n    function sortEmployeesByTotalBounty(Employee[] memory arr, int left, int right) view private {\r\n        int i = left;\r\n        int j = right;\r\n        if(i==j) return;\r\n        uint pivot = arr[uint(left + (right - left) / 2)]._totalBounty;\r\n        while (i >= j) {\r\n            while (arr[uint(i)]._totalBounty < pivot) i--;\r\n            while (pivot < arr[uint(j)]._totalBounty) j++;\r\n            if (i >= j) {\r\n                (arr[uint(j)], arr[uint(i)]) = (arr[uint(i)], arr[uint(j)]);\r\n                i--;\r\n                j++;\r\n            }\r\n        }\r\n        if (left > j)\r\n            sortEmployeesByTotalBounty(arr, left, j);\r\n        if (i > right)\r\n            sortEmployeesByTotalBounty(arr, i, right);\r\n    }\r\n\r\n\r\n    /**\r\n     * @notice - Quick load test data for testing\r\n     */\r\n    function loadTestData() public {\r\n        createEmployer(\"Google\");\r\n        \r\n        //Local\r\n        //addEmployee(parseAddr(\"\"), \"Ram\");\r\n        //addEmployee(parseAddr(\"\"), \"Sayan\");\r\n        //addEmployee(parseAddr(\"\"), \"Kaushik\");\r\n\r\n        //Injected\r\n        addEmployee(parseAddr(\"\"), \"Ram\");\r\n        addEmployee(parseAddr(\"\"), \"Sayan\");\r\n        addEmployee(parseAddr(\"\"), \"Kaushik\");\r\n\r\n        //createCourse(\"test1\", \"test1Desc\", \"https://www.youtube.com/watch?v=nUEBAS5r4Og\", 10);\r\n        //createCourse(\"test2\", \"test2Desc\", \"https://www.youtube.com/watch?v=aRJA1r1Gwu0\", 40);\r\n        //createCourse(\"test3\", \"test3Desc\", \"https://www.youtube.com/watch?v=aRJA1r1Gwu0\", 20);\r\n        //createCourse(\"test4\", \"test4Desc\", \"https://www.youtube.com/watch?v=aRJA1r1Gwu0\", 5);\r\n    }\r\n\r\n\r\n    /**\r\n     * @notice - Convert String to Address value\r\n     *\r\n     * @param _a - address value in string format\r\n     * @return _parsedAddress - address value in Address format\r\n     */\r\n    function parseAddr(string memory _a) internal pure returns (address _parsedAddress) {\r\n        bytes memory tmp = bytes(_a);\r\n        uint160 iaddr = 0;\r\n        uint160 b1;\r\n        uint160 b2;\r\n        for (uint i = 2; i < 2 + 2 * 20; i += 2) {\r\n            iaddr *= 256;\r\n            b1 = uint160(uint8(tmp[i]));\r\n            b2 = uint160(uint8(tmp[i + 1]));\r\n            if ((b1 >= 97) && (b1 <= 102)) {\r\n                b1 -= 87;\r\n            } else if ((b1 >= 65) && (b1 <= 70)) {\r\n                b1 -= 55;\r\n            } else if ((b1 >= 48) && (b1 <= 57)) {\r\n                b1 -= 48;\r\n            }\r\n            if ((b2 >= 97) && (b2 <= 102)) {\r\n                b2 -= 87;\r\n            } else if ((b2 >= 65) && (b2 <= 70)) {\r\n                b2 -= 55;\r\n            } else if ((b2 >= 48) && (b2 <= 57)) {\r\n                b2 -= 48;\r\n            }\r\n            iaddr += (b1 * 16 + b2);\r\n        }\r\n        return address(iaddr);\r\n    }\r\n\r\n}\r\n",
  "sourcePath": "/mnt/c/blockchainrepo/upload/bountyz-core/contracts/User.sol",
  "compiler": {
    "name": "solc",
    "version": "0.8.10+commit.fc410830.Emscripten.clang"
  },
  "schemaVersion": "3.4.4",
  "updatedAt": "2022-07-23T15:53:46.676Z",
  "networkType": "ethereum",
  "devdoc": {
    "kind": "dev",
    "methods": {
      "addEmployee(address,string)": {
        "params": {
          "_employeeAddress": "- The address of the employee.",
          "_employeeName": "- The username of the employee."
        }
      },
      "changeAccess(address)": {
        "params": {
          "_employeeAddress": "- The address of the employee."
        }
      },
      "completeCourse(uint8)": {
        "params": {
          "_courseId": "- course ID"
        },
        "returns": {
          "courseUrl": "- course URL"
        }
      },
      "createCourse(string,string,string,uint8,string,string)": {
        "params": {
          "_bounty": "- bounty for the course",
          "_cid": "- cid of the course",
          "_desc": "- description of the course",
          "_name": "- name of the course",
          "_url": "- url of the course"
        }
      },
      "fetchAssessmentQuestions(uint8)": {
        "params": {
          "courseID": "- ID of the course"
        },
        "returns": {
          "ipfsURL": "- IPFS file URL"
        }
      },
      "fetchCompletedCourses()": {
        "returns": {
          "_0": "courseList - list of courses  "
        }
      },
      "fetchCourses()": {
        "returns": {
          "courseList": "- list of courses  "
        }
      },
      "fetchIncompleteCourses()": {
        "returns": {
          "_0": "courseList - list of courses  "
        }
      },
      "getCourseStatus(uint8)": {
        "params": {
          "_courseId": "- course ID"
        },
        "returns": {
          "courseStatus": "- course status"
        }
      },
      "getTotalCourseBountyValue(address)": {
        "params": {
          "_employeeAddress": "- employee address"
        },
        "returns": {
          "totalBountyValue": "- total bounty value"
        }
      },
      "getUserName(address)": {
        "params": {
          "_address": "- The address of the user."
        }
      },
      "getUserType(address)": {
        "params": {
          "user": "- The address of the user."
        }
      }
    },
    "version": 1
  },
  "userdoc": {
    "kind": "user",
    "methods": {
      "addEmployee(address,string)": {
        "notice": "- This function is used to add a employee to the organization owned by an employer."
      },
      "changeAccess(address)": {
        "notice": "- This function is used to change the access of an employee."
      },
      "completeCourse(uint8)": {
        "notice": "- Complete course"
      },
      "createCourse(string,string,string,uint8,string,string)": {
        "notice": "- Creates course"
      },
      "createEmployer(string)": {
        "notice": "- This function is used to create a new employer/owner"
      },
      "deleteEmployee(address)": {
        "notice": "- This function is used to delete/make inactive an employee"
      },
      "fetchAssessmentQuestions(uint8)": {
        "notice": "- Fetch IPFS URL of course ID"
      },
      "fetchCompletedCourses()": {
        "notice": "- Fetch completed course list"
      },
      "fetchCourses()": {
        "notice": "- Fetch course list based on user type"
      },
      "fetchEmployees()": {
        "notice": "- This function is used to determine if the user is an employee of an organization."
      },
      "fetchIncompleteCourses()": {
        "notice": "- Fetch incompleted course list"
      },
      "getCourseStatus(uint8)": {
        "notice": "- Get course status"
      },
      "getTopPerformers()": {
        "notice": "- Fetches top performers based on total completion percentage"
      },
      "getTotalCourseBountyValue(address)": {
        "notice": "- Fetch total course bounty value"
      },
      "getUserName(address)": {
        "notice": "- This function is used to retrieve the username based on wallet address"
      },
      "getUserType(address)": {
        "notice": "- This function is used to determine the type of user 1 = employer. 2 = employee. 3 = unenrolled"
      },
      "loadTestData()": {
        "notice": "- Quick load test data for testing"
      }
    },
    "version": 1
  }
}